{
  "_format": "hh-sol-artifact-1",
  "contractName": "HelloWorld",
  "sourceName": "contracts/HelloWorld.sol",
  "abi": [
    {
      "inputs": [],
      "stateMutability": "nonpayable",
      "type": "constructor"
    },
    {
      "inputs": [],
      "name": "get",
      "outputs": [
        {
          "internalType": "string",
          "name": "",
          "type": "string"
        }
      ],
      "stateMutability": "view",
      "type": "function"
    },
    {
      "inputs": [],
      "name": "greet",
      "outputs": [
        {
          "internalType": "string",
          "name": "",
          "type": "string"
        }
      ],
      "stateMutability": "view",
      "type": "function"
    },
    {
      "inputs": [
        {
          "internalType": "string",
          "name": "newName",
          "type": "string"
        }
      ],
      "name": "set",
      "outputs": [],
      "stateMutability": "nonpayable",
      "type": "function"
    }
  ],
  "bytecode": "0x60806040526040518060400160405280601281526020017f48656c6c6f2c2054756e6465204a616d657300000000000000000000000000008152506000908051906020019061004f929190610155565b5034801561005c57600080fd5b506100886040518060600160405280602e815260200161083d602e913961008d60201b6101d41760201c565b610314565b610129816040516024016100a19190610231565b6040516020818303038152906040527f41304fac000000000000000000000000000000000000000000000000000000007bffffffffffffffffffffffffffffffffffffffffffffffffffffffff19166020820180517bffffffffffffffffffffffffffffffffffffffffffffffffffffffff838183161783525050505061012c60201b60201c565b50565b60008151905060006a636f6e736f6c652e6c6f679050602083016000808483855afa5050505050565b828054610161906102a2565b90600052602060002090601f01602090048101928261018357600085556101ca565b82601f1061019c57805160ff19168380011785556101ca565b828001600101855582156101ca579182015b828111156101c95782518255916020019190600101906101ae565b5b5090506101d791906101db565b5090565b5b808211156101f45760008160009055506001016101dc565b5090565b600061020382610253565b61020d818561025e565b935061021d81856020860161026f565b61022681610303565b840191505092915050565b6000602082019050818103600083015261024b81846101f8565b905092915050565b600081519050919050565b600082825260208201905092915050565b60005b8381101561028d578082015181840152602081019050610272565b8381111561029c576000848401525b50505050565b600060028204905060018216806102ba57607f821691505b602082108114156102ce576102cd6102d4565b5b50919050565b7f4e487b7100000000000000000000000000000000000000000000000000000000600052602260045260246000fd5b6000601f19601f8301169050919050565b61051a806103236000396000f3fe608060405234801561001057600080fd5b50600436106100415760003560e01c80634ed3885e146100465780636d4ce63c14610062578063cfae321714610080575b600080fd5b610060600480360381019061005b9190610383565b61009e565b005b61006a6100b4565b6040516100779190610401565b60405180910390f35b610088610146565b6040516100959190610401565b60405180910390f35b8181600091906100af929190610296565b505050565b6060600080546100c390610472565b80601f01602080910402602001604051908101604052809291908181526020018280546100ef90610472565b801561013c5780601f106101115761010080835404028352916020019161013c565b820191906000526020600020905b81548152906001019060200180831161011f57829003601f168201915b5050505050905090565b6000805461015390610472565b80601f016020809104026020016040519081016040528092919081815260200182805461017f90610472565b80156101cc5780601f106101a1576101008083540402835291602001916101cc565b820191906000526020600020905b8154815290600101906020018083116101af57829003601f168201915b505050505081565b61026a816040516024016101e89190610401565b6040516020818303038152906040527f41304fac000000000000000000000000000000000000000000000000000000007bffffffffffffffffffffffffffffffffffffffffffffffffffffffff19166020820180517bffffffffffffffffffffffffffffffffffffffffffffffffffffffff838183161783525050505061026d565b50565b60008151905060006a636f6e736f6c652e6c6f679050602083016000808483855afa5050505050565b8280546102a290610472565b90600052602060002090601f0160209004810192826102c4576000855561030b565b82601f106102dd57803560ff191683800117855561030b565b8280016001018555821561030b579182015b8281111561030a5782358255916020019190600101906102ef565b5b509050610318919061031c565b5090565b5b8082111561033557600081600090555060010161031d565b5090565b60008083601f84011261034b57600080fd5b8235905067ffffffffffffffff81111561036457600080fd5b60208301915083600182028301111561037c57600080fd5b9250929050565b6000806020838503121561039657600080fd5b600083013567ffffffffffffffff8111156103b057600080fd5b6103bc85828601610339565b92509250509250929050565b60006103d382610423565b6103dd818561042e565b93506103ed81856020860161043f565b6103f6816104d3565b840191505092915050565b6000602082019050818103600083015261041b81846103c8565b905092915050565b600081519050919050565b600082825260208201905092915050565b60005b8381101561045d578082015181840152602081019050610442565b8381111561046c576000848401525b50505050565b6000600282049050600182168061048a57607f821691505b6020821081141561049e5761049d6104a4565b5b50919050565b7f4e487b7100000000000000000000000000000000000000000000000000000000600052602260045260246000fd5b6000601f19601f830116905091905056fea26469706673582212204eb8ed2802ae5c4d2f5f2addc511867a2b6a3d724be23a506f4db883f3fb1c5964736f6c63430008040033596f20796f2c204920616d2061206772656574696e6720636f6e747261637420616e64204920616d20736d617274",
  "linkReferences": {},
  "deployedLinkReferences": {}
}